{
  "_format": "hh-sol-artifact-1",
  "contractName": "SongPortal",
  "sourceName": "contracts/SongPortal.sol",
  "abi": [
    {
      "inputs": [],
      "stateMutability": "payable",
      "type": "constructor"
    },
    {
      "anonymous": false,
      "inputs": [
        {
          "indexed": true,
          "internalType": "address",
          "name": "from",
          "type": "address"
        },
        {
          "indexed": true,
          "internalType": "uint256",
          "name": "trackId",
          "type": "uint256"
        },
        {
          "indexed": false,
          "internalType": "uint256",
          "name": "timestamp",
          "type": "uint256"
        },
        {
          "indexed": false,
          "internalType": "string",
          "name": "trackURL",
          "type": "string"
        }
      ],
      "name": "NewTrack",
      "type": "event"
    },
    {
      "inputs": [
        {
          "internalType": "uint256",
          "name": "_trackId",
          "type": "uint256"
        }
      ],
      "name": "LikeTrack",
      "outputs": [],
      "stateMutability": "nonpayable",
      "type": "function"
    },
    {
      "inputs": [
        {
          "internalType": "string",
          "name": "_URL",
          "type": "string"
        }
      ],
      "name": "PushTrack",
      "outputs": [],
      "stateMutability": "nonpayable",
      "type": "function"
    },
    {
      "inputs": [],
      "name": "getAllTracks",
      "outputs": [
        {
          "components": [
            {
              "internalType": "address",
              "name": "uploader",
              "type": "address"
            },
            {
              "internalType": "string",
              "name": "trackUrl",
              "type": "string"
            },
            {
              "internalType": "uint256",
              "name": "pushedAt",
              "type": "uint256"
            },
            {
              "internalType": "uint32",
              "name": "likes",
              "type": "uint32"
            }
          ],
          "internalType": "struct SongPortal.Track[]",
          "name": "",
          "type": "tuple[]"
        }
      ],
      "stateMutability": "view",
      "type": "function"
    },
    {
      "inputs": [],
      "name": "getTotalTracks",
      "outputs": [
        {
          "internalType": "uint256",
          "name": "",
          "type": "uint256"
        }
      ],
      "stateMutability": "view",
      "type": "function"
    }
  ],
  "bytecode": "0x6080604052655af3107a400060015560056003556200004260405180606001604052806035815260200162001652603591396200004860201b620007241760201c565b620001dc565b620000e8816040516024016200005f919062000155565b6040516020818303038152906040527f41304fac000000000000000000000000000000000000000000000000000000007bffffffffffffffffffffffffffffffffffffffffffffffffffffffff19166020820180517bffffffffffffffffffffffffffffffffffffffffffffffffffffffff8381831617835250505050620000eb60201b60201c565b50565b60008151905060006a636f6e736f6c652e6c6f679050602083016000808483855afa5050505050565b6000620001218262000179565b6200012d818562000184565b93506200013f81856020860162000195565b6200014a81620001cb565b840191505092915050565b6000602082019050818103600083015262000171818462000114565b905092915050565b600081519050919050565b600082825260208201905092915050565b60005b83811015620001b557808201518184015260208101905062000198565b83811115620001c5576000848401525b50505050565b6000601f19601f8301169050919050565b61146680620001ec6000396000f3fe608060405234801561001057600080fd5b506004361061004c5760003560e01c80630e6ad49214610051578063880d243f1461006d578063bf0c4bf114610089578063c0678a66146100a7575b600080fd5b61006b60048036038101906100669190610bbd565b6100c5565b005b61008760048036038101906100829190610b7c565b610175565b005b610091610562565b60405161009e9190611051565b60405180910390f35b6100af6105ad565b6040516100bc9190610eca565b60405180910390f35b600481815481106100ff577f4e487b7100000000000000000000000000000000000000000000000000000000600052603260045260246000fd5b9060005260206000209060040201600301600081819054906101000a900463ffffffff1680929190610130906112cd565b91906101000a81548163ffffffff021916908363ffffffff160217905550506101726040518060600160405280602181526020016114106021913933836107bd565b50565b42600354600560003373ffffffffffffffffffffffffffffffffffffffff1673ffffffffffffffffffffffffffffffffffffffff168152602001908152602001600020546101c3919061116e565b10610203576040517f08c379a00000000000000000000000000000000000000000000000000000000081526004016101fa90611031565b60405180910390fd5b42600560003373ffffffffffffffffffffffffffffffffffffffff1673ffffffffffffffffffffffffffffffffffffffff1681526020019081526020016000208190555060008081548092919061025990611284565b9190505550600460405180608001604052803373ffffffffffffffffffffffffffffffffffffffff168152602001838152602001428152602001600063ffffffff16815250908060018154018082558091505060019003906000526020600020906004020160009091909190915060008201518160000160006101000a81548173ffffffffffffffffffffffffffffffffffffffff021916908373ffffffffffffffffffffffffffffffffffffffff160217905550602082015181600101908051906020019061032a929190610a5c565b506040820151816002015560608201518160030160006101000a81548163ffffffff021916908363ffffffff160217905550505061039e6040518060400160405280601781526020017f257320736861726564207468697320747261636b202573000000000000000000815250338361085c565b6000606460025442446103b1919061116e565b6103bb919061116e565b6103c591906112fa565b905080600281905550604181101561050b576104166040518060400160405280600781526020017f257320776f6e2100000000000000000000000000000000000000000000000000815250336108fb565b47600154111561045b576040517f08c379a000000000000000000000000000000000000000000000000000000000815260040161045290610ff1565b60405180910390fd5b60003373ffffffffffffffffffffffffffffffffffffffff1660015460405161048390610eb5565b60006040518083038185875af1925050503d80600081146104c0576040519150601f19603f3d011682016040523d82523d6000602084013e6104c5565b606091505b5050905080610509576040517f08c379a000000000000000000000000000000000000000000000000000000000815260040161050090611011565b60405180910390fd5b505b6000543373ffffffffffffffffffffffffffffffffffffffff167fe469021dab5def74dec85bf45aa9ec0609d342737099336b02dc39e9aa7cd2e3428560405161055692919061106c565b60405180910390a35050565b60006105a56040518060400160405280601881526020017f5765206861766520256420746f74616c20547261636b73210000000000000000815250600054610997565b600054905090565b60606004805480602002602001604051908101604052809291908181526020016000905b8282101561071b57838290600052602060002090600402016040518060800160405290816000820160009054906101000a900473ffffffffffffffffffffffffffffffffffffffff1673ffffffffffffffffffffffffffffffffffffffff1673ffffffffffffffffffffffffffffffffffffffff16815260200160018201805461065a90611252565b80601f016020809104026020016040519081016040528092919081815260200182805461068690611252565b80156106d35780601f106106a8576101008083540402835291602001916106d3565b820191906000526020600020905b8154815290600101906020018083116106b657829003601f168201915b50505050508152602001600282015481526020016003820160009054906101000a900463ffffffff1663ffffffff1663ffffffff1681525050815260200190600101906105d1565b50505050905090565b6107ba816040516024016107389190610eec565b6040516020818303038152906040527f41304fac000000000000000000000000000000000000000000000000000000007bffffffffffffffffffffffffffffffffffffffffffffffffffffffff19166020820180517bffffffffffffffffffffffffffffffffffffffffffffffffffffffff8381831617835250505050610a33565b50565b6108578383836040516024016107d593929190610f83565b6040516020818303038152906040527f07c81217000000000000000000000000000000000000000000000000000000007bffffffffffffffffffffffffffffffffffffffffffffffffffffffff19166020820180517bffffffffffffffffffffffffffffffffffffffffffffffffffffffff8381831617835250505050610a33565b505050565b6108f683838360405160240161087493929190610f3e565b6040516020818303038152906040527fe0e9ad4f000000000000000000000000000000000000000000000000000000007bffffffffffffffffffffffffffffffffffffffffffffffffffffffff19166020820180517bffffffffffffffffffffffffffffffffffffffffffffffffffffffff8381831617835250505050610a33565b505050565b6109938282604051602401610911929190610f0e565b6040516020818303038152906040527f319af333000000000000000000000000000000000000000000000000000000007bffffffffffffffffffffffffffffffffffffffffffffffffffffffff19166020820180517bffffffffffffffffffffffffffffffffffffffffffffffffffffffff8381831617835250505050610a33565b5050565b610a2f82826040516024016109ad929190610fc1565b6040516020818303038152906040527f9710a9d0000000000000000000000000000000000000000000000000000000007bffffffffffffffffffffffffffffffffffffffffffffffffffffffff19166020820180517bffffffffffffffffffffffffffffffffffffffffffffffffffffffff8381831617835250505050610a33565b5050565b60008151905060006a636f6e736f6c652e6c6f679050602083016000808483855afa5050505050565b828054610a6890611252565b90600052602060002090601f016020900481019282610a8a5760008555610ad1565b82601f10610aa357805160ff1916838001178555610ad1565b82800160010185558215610ad1579182015b82811115610ad0578251825591602001919060010190610ab5565b5b509050610ade9190610ae2565b5090565b5b80821115610afb576000816000905550600101610ae3565b5090565b6000610b12610b0d846110cd565b61109c565b905082815260208101848484011115610b2a57600080fd5b610b35848285611210565b509392505050565b600082601f830112610b4e57600080fd5b8135610b5e848260208601610aff565b91505092915050565b600081359050610b76816113f8565b92915050565b600060208284031215610b8e57600080fd5b600082013567ffffffffffffffff811115610ba857600080fd5b610bb484828501610b3d565b91505092915050565b600060208284031215610bcf57600080fd5b6000610bdd84828501610b67565b91505092915050565b6000610bf28383610e25565b905092915050565b610c03816111c4565b82525050565b610c12816111c4565b82525050565b6000610c238261110d565b610c2d8185611130565b935083602082028501610c3f856110fd565b8060005b85811015610c7b5784840389528151610c5c8582610be6565b9450610c6783611123565b925060208a01995050600181019050610c43565b50829750879550505050505092915050565b6000610c9882611118565b610ca2818561114c565b9350610cb281856020860161121f565b610cbb816113e7565b840191505092915050565b6000610cd182611118565b610cdb818561115d565b9350610ceb81856020860161121f565b610cf4816113e7565b840191505092915050565b6000610d0c60348361115d565b91507f547279696e6720746f207769746864726177206d6f7265206d6f6e657920746860008301527f616e2074686520636f6e7472616374206861732e0000000000000000000000006020830152604082019050919050565b6000610d7260278361115d565b91507f4661696c656420746f207769746864726177206d6f6e65792066726f6d20636f60008301527f6e74726163742e000000000000000000000000000000000000000000000000006020830152604082019050919050565b6000610dd8600083611141565b9150600082019050919050565b6000610df260098361115d565b91507f57616974203573656300000000000000000000000000000000000000000000006000830152602082019050919050565b6000608083016000830151610e3d6000860182610bfa565b5060208301518482036020860152610e558282610c8d565b9150506040830151610e6a6040860182610e88565b506060830151610e7d6060860182610ea6565b508091505092915050565b610e91816111f6565b82525050565b610ea0816111f6565b82525050565b610eaf81611200565b82525050565b6000610ec082610dcb565b9150819050919050565b60006020820190508181036000830152610ee48184610c18565b905092915050565b60006020820190508181036000830152610f068184610cc6565b905092915050565b60006040820190508181036000830152610f288185610cc6565b9050610f376020830184610c09565b9392505050565b60006060820190508181036000830152610f588186610cc6565b9050610f676020830185610c09565b8181036040830152610f798184610cc6565b9050949350505050565b60006060820190508181036000830152610f9d8186610cc6565b9050610fac6020830185610c09565b610fb96040830184610e97565b949350505050565b60006040820190508181036000830152610fdb8185610cc6565b9050610fea6020830184610e97565b9392505050565b6000602082019050818103600083015261100a81610cff565b9050919050565b6000602082019050818103600083015261102a81610d65565b9050919050565b6000602082019050818103600083015261104a81610de5565b9050919050565b60006020820190506110666000830184610e97565b92915050565b60006040820190506110816000830185610e97565b81810360208301526110938184610cc6565b90509392505050565b6000604051905081810181811067ffffffffffffffff821117156110c3576110c26113b8565b5b8060405250919050565b600067ffffffffffffffff8211156110e8576110e76113b8565b5b601f19601f8301169050602081019050919050565b6000819050602082019050919050565b600081519050919050565b600081519050919050565b6000602082019050919050565b600082825260208201905092915050565b600081905092915050565b600082825260208201905092915050565b600082825260208201905092915050565b6000611179826111f6565b9150611184836111f6565b9250827fffffffffffffffffffffffffffffffffffffffffffffffffffffffffffffffff038211156111b9576111b861132b565b5b828201905092915050565b60006111cf826111d6565b9050919050565b600073ffffffffffffffffffffffffffffffffffffffff82169050919050565b6000819050919050565b600063ffffffff82169050919050565b82818337600083830152505050565b60005b8381101561123d578082015181840152602081019050611222565b8381111561124c576000848401525b50505050565b6000600282049050600182168061126a57607f821691505b6020821081141561127e5761127d611389565b5b50919050565b600061128f826111f6565b91507fffffffffffffffffffffffffffffffffffffffffffffffffffffffffffffffff8214156112c2576112c161132b565b5b600182019050919050565b60006112d882611200565b915063ffffffff8214156112ef576112ee61132b565b5b600182019050919050565b6000611305826111f6565b9150611310836111f6565b9250826113205761131f61135a565b5b828206905092915050565b7f4e487b7100000000000000000000000000000000000000000000000000000000600052601160045260246000fd5b7f4e487b7100000000000000000000000000000000000000000000000000000000600052601260045260246000fd5b7f4e487b7100000000000000000000000000000000000000000000000000000000600052602260045260246000fd5b7f4e487b7100000000000000000000000000000000000000000000000000000000600052604160045260246000fd5b6000601f19601f8301169050919050565b611401816111f6565b811461140c57600080fd5b5056fe257320686173206c696b65642074686520747261636b206174204944203a202564a2646970667358221220847f47cb0cc7e2bb3efeaea1822a844efddda1b5e658aa1a65dcdb3daa9168af64736f6c6343000800003348657921204d616e6176207468697320736964652e2054686973206973206d7920666972737420536d61727420436f6e7472616374",
  "linkReferences": {},
  "deployedLinkReferences": {}
}